:02000000952841
:10000800FF00030E8301A8000A08A7008A017008F0
:10001800A0000B1C1128FE308B058B1C242888019E
:10002800F430AF000130B0004F2099308800E8303C
:10003800AF000330B0004F20AA308800FD308B0598
:100048000C1D2828FB308C050C1C2F28A30A03192B
:10005800A40AFE308C05AA3088002008F000270882
:0C0068008A00280E8300FF0E7F0E0900A6
:1000740083120313AB01AC01AB01AC012A082C02BF
:10008400031D462829082B0203184E2800000000EF
:0A009400AB0A0319AC0A402808006B
:10009E0083120313B101B201B301B401B101B20174
:1000AE0030083202031D5D282F0831020318712813
:1000BE00B301B40100303402031D67289B303302B4
:1000CE0003186D28B30A0319B40A6128B10A03197B
:0600DE00B20A57280800D9
:1000E40083120313AB01AC01AD01AE01AB01AC0152
:1000F4002A082C02031D802829082B02031894289F
:10010400AD01AE0100302E02031D8A289B302D0262
:1001140003189028AD0A0319AE0A8428AB0A031900
:06012400AC0A7A28080075
:10012A00AB30831603138600880183128601AA3036
:10013A00880008308316870083128701D0308B0429
:10014A0083160C14183083129000AA308800A30179
:10015A00A4018F018E0106156430A9000030AA009F
:10016A003A20FB3086058618BB28B828193090003B
:10017A00861CC028BD28183090000F08F100F00135
:10018A000E087004F2007108F3000030F3047208DC
:10019A00A5007308A60000307302031DD628C830D4
:1001AA0072020318E5288801F430A9000130AA0078
:1001BA00722099308800E830A9000330AA00722022
:1001CA00AA308800A301A4018F018E01871664302A
:1001DA00A9000030AA003A20DF3087058619F628E0
:1001EA00F32819309000861DFB28F8281830900053
:1001FA000F08F100F0010E087004F2007108F30014
:10020A000030F3047208A5007308A60000307302D8
:10021A00031D1129C8307202031820298801F430FD
:10022A00A9000130AA00722099308800E830A9009C
:10023A000330AA007220AA308800A301A4018F010A
:10024A008E0107166430A9000030AA003A20EF3068
:10025A008705871931292E2919309000871D3629DB
:10026A003329183090000F08F100F0010E087004CD
:10027A00F2007108F3000030F3047208A500730855
:10028A00A60000307302031D4C29C83072020318FD
:10029A005B298801F430A9000130AA007220663077
:1002AA008800E830A9000330AA007220AA3088002A
:0402BA00AA285E29E7
:02400E004A2F37
:00000001FF
